{
  "contractName": "Adoption",
  "abi": [
    {
      "constant": true,
      "inputs": [
        {
          "internalType": "uint256",
          "name": "",
          "type": "uint256"
        }
      ],
      "name": "adopters",
      "outputs": [
        {
          "internalType": "address",
          "name": "",
          "type": "address"
        }
      ],
      "payable": false,
      "stateMutability": "view",
      "type": "function"
    },
    {
      "constant": false,
      "inputs": [
        {
          "internalType": "uint256",
          "name": "petId",
          "type": "uint256"
        }
      ],
      "name": "adopt",
      "outputs": [
        {
          "internalType": "uint256",
          "name": "",
          "type": "uint256"
        }
      ],
      "payable": false,
      "stateMutability": "nonpayable",
      "type": "function"
    },
    {
      "constant": false,
      "inputs": [
        {
          "internalType": "uint256",
          "name": "petId",
          "type": "uint256"
        }
      ],
      "name": "removeAdoption",
      "outputs": [
        {
          "internalType": "uint256",
          "name": "",
          "type": "uint256"
        }
      ],
      "payable": false,
      "stateMutability": "nonpayable",
      "type": "function"
    },
    {
      "constant": true,
      "inputs": [],
      "name": "getAdopters",
      "outputs": [
        {
          "internalType": "address[16]",
          "name": "",
          "type": "address[16]"
        }
      ],
      "payable": false,
      "stateMutability": "view",
      "type": "function"
    }
  ],
  "bytecode": "0x608060405234801561001057600080fd5b5061035b806100206000396000f3fe608060405234801561001057600080fd5b506004361061004c5760003560e01c80633de4eb171461005157806343ae80d31461009757806368355894146101055780638588b2c514610147575b600080fd5b610059610189565b6040518082601060200280838360005b83811015610084578082015181840152602081019050610069565b5050505090500191505060405180910390f35b6100c3600480360360208110156100ad57600080fd5b810190808035906020019092919050505061020a565b604051808273ffffffffffffffffffffffffffffffffffffffff1673ffffffffffffffffffffffffffffffffffffffff16815260200191505060405180910390f35b6101316004803603602081101561011b57600080fd5b810190808035906020019092919050505061023d565b6040518082815260200191505060405180910390f35b6101736004803603602081101561015d57600080fd5b8101908080359060200190929190505050610292565b6040518082815260200191505060405180910390f35b610191610303565b6000601080602002604051908101604052809291908260108015610200576020028201915b8160009054906101000a900473ffffffffffffffffffffffffffffffffffffffff1673ffffffffffffffffffffffffffffffffffffffff16815260200190600101908083116101b6575b5050505050905090565b6000816010811061021757fe5b016000915054906101000a900473ffffffffffffffffffffffffffffffffffffffff1681565b60008082101580156102505750600f8211155b61025957600080fd5b6000826010811061026657fe5b0160006101000a81549073ffffffffffffffffffffffffffffffffffffffff0219169055819050919050565b60008082101580156102a55750600f8211155b6102ae57600080fd5b33600083601081106102bc57fe5b0160006101000a81548173ffffffffffffffffffffffffffffffffffffffff021916908373ffffffffffffffffffffffffffffffffffffffff160217905550819050919050565b60405180610200016040528060109060208202803883398082019150509050509056fea265627a7a72315820112c7776399012fdbbba3f2eba379e49e648e922f2583fac65d5bbdfa5f1078464736f6c63430005100032",
  "source": "pragma solidity ^0.5.0;\r\n\r\n\r\ncontract Adoption{\r\n    address[16] public adopters;\r\n\r\n    function adopt(uint petId)public  returns (uint){\r\n        require(petId >= 0 && petId <=15);\r\n        // require(adopters[petId] != 0x0000000000000000000000000000000000000000,\"Already Adopted\" );\r\n       \r\n        adopters[petId] = msg.sender;\r\n\r\n        return petId;\r\n        \r\n    }\r\n\r\n    function removeAdoption(uint petId)public returns (uint){\r\n        require(petId >=0 && petId <=15);\r\n        // require(adopters[petId] != \"0x0000000000000000000000000000000000000000\",\"You have not adopted this pet\" );\r\n        delete adopters[petId];\r\n        return petId;\r\n    }\r\n\r\n    function getAdopters() public view returns (address[16] memory){\r\n        return adopters;  \r\n    }\r\n\r\n\r\n}\r\n",
  "sourcePath": "G:/blockchain/Quarter-4/React/Redux/Working/pet-shop-react/contracts/Adoption.sol",
  "compiler": {
    "name": "solc",
    "version": "0.5.16+commit.9c3226ce.Emscripten.clang"
  },
  "schemaVersion": "3.3.2",
  "updatedAt": "2021-02-27T20:55:37.829Z",
  "networkType": "ethereum",
  "devdoc": {
    "methods": {}
  },
  "userdoc": {
    "methods": {}
  }
}